:020000020000FC
:100000000FEF0DBF08E00EBF00E80093610004E0B1
:100010000093610000E007B90FEF08B90FEF04B9D2
:1000200000E005B90FEF0AB900E00BB91FE720E0C7
:1000300030E040E020681017E9F30E94330006B179
:100040001017C1F3102F00FF0E94380001FF0E941B
:10005000410002FF0E944A0003FF0E94530004FF78
:100060000E945C00E7CFFAE0FA95F030E9F70895D6
:100070002F702F3019F023952BB9089520E02BB95C
:1000800008952F70203019F02A952BB908952FE08C
:100090002BB908953F7E3F3019F0339535B9089557
:1000A00030E035B908953F7E303019F03A9535B9D2
:1000B00008953FE035B90895422F430F40FD206178
:1000C00041FD206242FD206443FD206844FD306113
:0600D00035B92BB90895BB
:00000001FF
